:100000000C9458020C9489020C9489020C94890275
:100010000C9489020C9489020C9489020C94890234
:100020000C9489020C9489020C9489020C94890224
:100030000C9489020C9489020C9489020C94890214
:100040000C9489020C9489020C9489020C94890204
:100050000C94E2480C9489020C9489020C94484751
:100060000C9489020C94B8480C948E480C94890224
:100070000C9489020C9489020C9489020C948902D4
:100080000C9489020C9489020C9489020C948902C4
:100090000C9464480C943A480C9489020C9489029C
:1000A0000C9489020C9489020C9489020C948902A4
:1000B0000C9489020C9489020C9489020C94890294
:1000C0000C9489020C9489020C9489020C941048B7
:1000D0000C94E6470C9489020C94BC470C9492470C
:1000E0000C9489020C94CB060C9475090C945C0357
:1000F0000C946F070C9490080C9451070C94D6063E
:100100000C94E3050C945B490C9468090C943A0335
:100110000C94C6080C9466720C9497710C94EA08BF
:100120000C94120F0C9444090C940E090C94CA43BD
:100130000C94B4080C9428070C942E430C9465037B
:100140000C9433030C944F080C9441710C94D50516
:100150000C9488090C9497720C9420090C9439061D
:100160000C94E8060C9411070C944E030C9461084F
:100170000C9456090C94DE070C9483090C9419080E
:100180000C946D710C9460030C942F030C94EA078B
:100190000C94C1070C9437030C9444030C942B0863
:1001A0000C94A3070C942B030C94CC070C94D80844
:1001B0000C943A070C948F090C9486060C94F40660
:1001C0000C943D080C942F700C947C430C94FC0808
:1001D0000C94A2080C947A070C94A6720C94000F4D
:1001E0000C946C080C9463070C9422440C947E08C5
:1001F0000C9407080C94FF060C94FB720C945203A9
:100200000C9486710C948C070C9432090C94240F76
:100210000C9425030C94CA710C9458030C946A0333
:100220000C9432720C943D050C941D070C944A03F7
:100230000C9466030C944C050C94F7040C947C0904
:100240000C9498070C9446070C94B5070C94400343
:100250000C947F710C94F5074E414E494E49545908
:10026000494E46CDCCCC3D0AD7233C17B7D1387781
:10027000CC2B329595E6241FB14F0A000020410097
:1002800000C84200401C4620BCBE4CCA1B0E5AAEE1
:10029000C59D7400407A10F35A00A0724E180900F0
:1002A00010A5D4E80000E87648170000E40B5402DB
:1002B0000000CA9A3B000000E1F505000080969816
:1002C00000000040420F000000A086010000001066
:1002D0002700000000E803000000006400000000A8
:1002E000000A00000000000100000000002C76D889
:1002F00088DC674F0823DFC1DFAE59E1B1B796E56F
:10030000E3E453C63AE651997696E8E6C28426EBD2
:10031000898C9B62ED407C6FFCEFBC9C9F40F2BAE5
:10032000A56FA5F490055A2AF75C936B6CF9676D7D
:10033000C11BFCE0E40D47FEF520E6B500D0ED90D2
:100340002E0300943577050080841E080000204E9F
:100350000A000000C80C333333330F986E12831138
:1003600041EF8D2114893BE65516CFFEE6DB18D10F
:10037000844B381BF77C1D901DA4BBE424203284E1
:10038000725E228100C9F124ECA1E53D2700002125
:1003900000240027002A002D003000330001010056
:1003A00000040107010A0100002200250028002B9B
:1003B000002E003100340002010000050108010B8D
:1003C00001000020002300260029002C002F00320D
:1003D00000000100000301060109010505050507EC
:1003E0000508080808020202020A0A0808040404B0
:1003F00004010101010101010103030303030303DC
:1004000003040707070C0C0C0C0C0C0C0C0202026A
:100410000206060606060606060B0B0B0B0B0B0B5D
:100420000B010210202008081020401020408002FC
:10043000010201080402010102040810204080802A
:1004400040201008040201800402018040201008AE
:100450000402010804020101020408102040800186
:100460000204081020408000000A0B02090C0D0E47
:100470000807030401000000000000000000000065
:10048000000000000000000000000000000000006C
:100490000000001211100000000000000000000029
:1004A00000000000000000000000000000005B49A8
:1004B00011241FBECFEFD1E2DEBFCDBF00E00CBFE5
:1004C00017E0A0E0B2E0EEE9FFEF00E00BBF02C0F2
:1004D00007900D92A63BB107D9F72AE1A6EBB7E04A
:1004E00001C01D92AB3EB207E1F712E0C8E5D2E0D1
:1004F00000E006C021970109802FFE010E94A07D27
:10050000C735D10780E00807A9F70E94765A0C94F6
:10051000CD7F0C940000CF92DF92EF92FF92CF93A9
:10052000DF93EC016A017B01E889F98982E080832D
:10053000C11481EED806E104F104A1F060E079E095
:100540008DE390E0A70196010E94417C2150310982
:10055000410951095695479537952795211580E111
:10056000380798F0E889F989108260E874E88EE12C
:1005700090E0A70196010E94417C21503109410978
:1005800051095695479537952795EC85FD8530831C
:10059000EE85FF852083188EEC89FD8986E08083B7
:1005A000EA89FB89808180618083EA89FB89808177
:1005B00088608083EA89FB89808180688083EA89FA
:1005C000FB8980818F7D8083DF91CF91FF90EF90B9
:1005D000DF90CF900895EAEDF6E190E02FEF3FEF46
:1005E000981791F04191242748E0B901617077276D
:1005F00036952795672B21F051E0252750EA3527BE
:10060000415099F79F5FECCF922F832F089581502F
:10061000823108F05AC0E82FF0E08827ED5EFC4FE9
:100620008F4F0C94A07D3303370325032B032F0337
:1006300065033A03400344034A034E03520358033D
:100640005C036503600366036A03809180008F7713
:10065000809380000895809180008F7DF9CF8091F4
:100660008000877FF5CF84B58F7784BD089584B5EA
:100670008F7DFBCF8091B0008F778093B00008957D
:100680008091B0008F7DF9CF809190008F7780931B
:1006900090000895809190008F7DF9CF8091900017
:1006A000877FF5CF8091A0008F778093A000089579
:1006B0008091A0008F7DF9CF8091A000877FF5CF3A
:1006C000809120018F7780932001089580912001EF
:1006D0008F7DF9CF80912001877FF5CFCF93DF9376
:1006E000282F30E0F901E959FB4F8491F901EF5DC2
:1006F000FB4FD491F901E552FC4FC491CC23A1F0FA
:1007000081110E940703EC2FF0E0EE0FFF1FEF5363
:10071000FC4FA591B491EC91ED2381E090E009F4B8
:1007200080E0DF91CF91089580E090E0FACF1F93B1
:10073000CF93DF93282F30E0F901E959FB4F8491E3
:10074000F901EF5DFB4FD491F901E552FC4FC491E3
:10075000CC23A9F0162F81110E940703EC2FF0E0A3
:10076000EE0FFF1FE955FC4FA591B4918FB7F89498
:10077000EC91111108C0D095DE23DC938FBFDF917F
:10078000CF911F910895DE2BF8CFCF93DF9390E0A8
:10079000FC01EF5DFB4F249185529C4FFC0184913D
:1007A0008823D1F090E0880F991FFC01E357FC4F9C
:1007B000A591B491FC01E955FC4FC591D49161110B
:1007C0000EC09FB7F8948C91E22FE0958E238C9306
:1007D0002881E223E8839FBFDF91CF9108958FB7EF
:1007E000F894EC91E22BEC938FBFF6CF3FB7F894DF
:1007F0008091A3099091A409A091A509B091A6099F
:1008000026B5A89B05C02F3F19F00196A11DB11D6B
:100810003FBFBA2FA92F982F8827BC01CD01620FA7
:10082000711D811D911D42E0660F771F881F991F62
:100830004A95D1F708958F929F92AF92BF92CF922F
:10084000DF92EF92FF924B015C010E94F6036B0175
:100850007C010E94F6036C197D098E099F09683E90
:10086000734081059105A8F321E0821A9108A1083F
:10087000B10888EEC80E83E0D81EE11CF11C81147B
:100880009104A104B10429F7FF90EF90DF90CF907D
:10089000BF90AF909F908F9008952FB7F89460917C
:1008A0009F097091A0098091A1099091A2092FBF81
:1008B0000895CF93C0911A178C2F0E94EB02EC2F52
:1008C000F0E0ED52F94E9783E1E0EC0FF0E0ED52ED
:1008D000F94E8783CE5FC0931A178091D716823066
:1008E000A8F08091D616823009F460C0833009F4F4
:1008F00063C0813009F066C08091C8008064809335
:10090000C80061E08091D7160E9497038091D316AA
:100910009091D41640911A1750E0DC01ED91FC91B2
:100920000280F381E02D6AED76E119958091D7166A
:10093000823090F09091D616923009F449C09330ED
:1009400009F44BC0913009F04DC09091C80096FF5A
:10095000FCCF60E00E9497038091D3169091D4164B
:10096000DC01ED91FC910680F781E02D1995109244
:100970001A170E944D042091241730912517620FF9
:10098000731F811D911D60932A1770932B178093FD
:100990002C1790932D178091201790912117019675
:1009A0009093211780932017CF9108958091D000C4
:1009B00080648093D000A5CF8091300180648093C3
:1009C00030019FCF8091C00080648093C00099CF98
:1009D0009091D00096FFFCCFBCCF9091300196FF54
:1009E000FCCFB7CF9091C00096FFFCCFB2CFAF92B3
:1009F000BF92CF92DF92EF92FF920F931F93CF930C
:100A0000DF936C017B018B01040F151FEB015E016D
:100A1000AE18BF08C017D10759F06991D601ED9102
:100A2000FC910190F081E02DC6011995892B79F791
:100A3000C501DF91CF911F910F91FF90EF90DF9053
:100A4000CF90BF90AF900895FC01A089B1898C919F
:100A5000A689B78982FD0FC09C91818D8F5F8F73AE
:100A6000228D821749F0A18DAE0FBF2FB11D5D966B
:100A70009C93818F08958C910895FC01538D448D32
:100A8000252F30E0842F90E0821B930B541710F039
:100A9000CF96089501970895FC01918D828D981746
:100AA00061F0A28DAE0FBF2FB11D5D968C91928D1E
:100AB0009F5F9F73928F90E008958FEF9FEF08954F
:100AC0008F929F92AF92BF92EF92FF920F931F93DC
:100AD000CF93DF9300D01F92CDB7DEB719821A8271
:100AE0001B821C8284E690E0A0E0B0E08093840B3F
:100AF0009093850BA093860BB093870B8E010F5FAD
:100B00001F4F7E0185E0E80EF11C0E944D046093AA
:100B1000880B7093890B80938A0B90938B0B80E8E2
:100B20009BE00E944C0597FF38C00E944D048090C6
:100B3000880B9090890BA0908A0BB0908B0B681952
:100B400079098A099B098090840B9090850BA0906D
:100B5000860BB090870B681579058A059B05F8F21E
:100B60008981813051F48A818F3F39F48B818F3FA5
:100B700021F481E09C819F3F09F080E00F900F906D
:100B80000F900F90DF91CF911F910F91FF90EF90F9
:100B9000BF90AF909F908F900895F80181938F013F
:100BA000EE16FF0609F0B1CFDBCFFC01918D828DEF
:100BB000981731F0828DE80FF11D858D90E0089532
:100BC0008FEF9FEF0895FC01918D228D892F90E08A
:100BD000805C9F4F821B91098F739927089589EA42
:100BE00099E00E94E30521E0892B09F420E0822F9F
:100BF000089586E49AE00E94E30521E0892B09F438
:100C000020E0822F089583EE9AE00E94E30521E020
:100C1000892B09F420E0822F089580E89BE00E9450
:100C2000E30521E0892B09F420E0822F0895FC01DF
:100C3000A48DA80FB92FB11DA35ABF4F2C91848D3D
:100C400090E001968F739927848FA689B7892C939A
:100C5000A089B1898C91837080648C93938D848DED
:100C6000981306C00288F389E02D80818F7D8083F0
:100C70000895EF92FF920F931F93CF93DF93EC01B0
:100C800081E0888F9B8D8C8D98131AC0E889F98933
:100C9000808185FF15C09FB7F894EE89FF89608336
:100CA000E889F98980818370806480839FBF81E0B7
:100CB00090E0DF91CF911F910F91FF90EF900895F9
:100CC000F62E0B8D10E00F5F1F4F0F731127E02ED4
:100CD0008C8D8E110CC00FB607FCFACFE889F9890C
:100CE000808185FFF5CFCE010E941706F1CFEB8DF5
:100CF000EC0FFD2FF11DE35AFF4FF0829FB7F894E0
:100D00000B8FEA89FB8980818062CFCFCF93DF93FD
:100D1000EC01888D8823B9F0AA89BB89E889F98913
:100D20008C9185FD03C0808186FD0DC00FB607FC48
:100D3000F7CF8C9185FFF2CF808185FFEDCFCE017B
:100D40000E941706E9CFDF91CF91089580E090E0EF
:100D5000892B29F00E940D0681110E94000080E07D
:100D600090E0892B29F00E94030681110E94000067
:100D700080E090E0892B29F00E94F90581110E9402
:100D8000000080E090E0892B29F00E94EF0581119E
:100D90000C940000089581E090E0909310098093F6
:100DA0000F09909399098093980908958091A51A45
:100DB0009091A61A892B39F481E090E09093A61ABD
:100DC0008093A51A08951092A61A1092A51A089554
:100DD0008091A51A9091A61A8130910521F49093E3
:100DE000A81A8093A71A08958091A51A9091A61A1F
:100DF000019721F41092A81A1092A71A08958091D1
:100E0000651A9091661A892B39F481E090E09093ED
:100E1000661A8093651A08951092661A1092651AE0
:100E200008958091651A9091661A8130910521F498
:100E30009093681A8093671A08958091651A90912B
:100E4000661A019721F41092681A1092671A089591
:100E50008091251A9091261A892B39F481E090E02F
:100E60009093261A8093251A08951092261A1092AC
:100E7000251A08958091251A9091261A813091059E
:100E800021F49093281A8093271A08958091251AA7
:100E90009091261A019721F41092281A1092271A7D
:100EA00008958091A5199091A619892B39F481E0B4
:100EB00090E09093A6198093A51908951092A61911
:100EC0001092A51908958091A5199091A6198130C5
:100ED000910521F49093A8198093A7190895809102
:100EE000A5199091A619019721F41092A8191092B2
:100EF000A71908958091251990912619892B39F405
:100F000081E090E09093261980932519089510921E
:100F10002619109225190895809125199091261966
:100F20008130910521F49093281980932719089511
:100F30008091251990912619019721F41092281972
:100F40001092271908958091E5199091E619892B3F
:100F500039F481E090E09093E6198093E5190895C3
:100F60001092E6191092E51908958091E519909173
:100F7000E6198130910521F49093E8198093E719DF
:100F800008958091E5199091E619019721F4109246
:100F9000E8191092E71908958091651990916619E2
:100FA000892B39F481E090E090936619809365195C
:100FB0000895109266191092651908958091651927
:100FC000909166198130910521F49093681980936E
:100FD000671908958091651990916619019721F418
:100FE00010926819109267190895809111199091C3
:100FF0001219892B39F481E090E0909312198093B3
:1010000011190895109212191092111908958091D2
:10101000131990911419892B39F481E090E0909381
:10102000141980931319089510921419109213191A
:1010300008958091FD189091FE18892B39F481E074
:1010400090E09093FE188093FD1808951092FE187A
:101050001092FD1808958091FF1890910019892B26
:1010600039F481E090E0909300198093FF1808957F
:10107000109200191092FF1808958091E91890912C
:10108000EA18892B39F481E090E09093EA18809374
:10109000E91808951092EA181092E91808958091BD
:1010A000EB189091EC18892B39F481E090E0909343
:1010B000EC188093EB1808951092EC181092EB182E
:1010C0000895E0E0F4E081E090E09383828380A5DE
:1010D00091A597A386A3089580910804909109048F
:1010E000892B39F481E090E09093090480930804FF
:1010F00008951092090410920804089580910A043A
:1011000090910B04892B39F481E090E090930B04CB
:1011100080930A04089510920B0410920A04089513
:101120008091840890918508892B39F481E090E0C2
:1011300090938508809384080895109285081092F2
:10114000840808958091800890918108892B39F452
:1011500081E090E090938108809380080895109238
:1011600081081092800808958091940290919502D0
:10117000892B39F481E090E090939502809394025A
:101180000895109295021092940208958091DD08BE
:101190009091DE08892B39F481E090E09093DE088D
:1011A0008093DD0808951092DE081092DD080895FE
:1011B0008091D9089091DA08892B39F481E090E088
:1011C0009093DA088093D90808951092DA08109263
:1011D000D90808958091DB089091DC08892B39F4B7
:1011E00081E090E09093DC088093DB0808951092F2
:1011F000DC081092DB0808958091DF089091E008E8
:10120000892B39F481E090E09093E0088093DF0827
:1012100008951092E0081092DF0808958091FF0869
:1012200090910009892B39F481E090E090930009B6
:101230008093FF080895109200091092FF08089506
:101240008091EB089091EC08892B39F481E090E0D3
:101250009093EC088093EB0808951092EC0810929C
:10126000EB0808958091F1089091F208892B39F4E8
:1012700081E090E09093F2088093F1080895109235
:10128000F2081092F10808958091F5089091F608FF
:10129000892B39F481E090E09093F6088093F5086B
:1012A00008951092F6081092F50808958091140997
:1012B00090911509892B39F481E090E090931509FC
:1012C0008093140908951092150910921409089535
:1012D00080912A0990912B09892B31F481E090E0CB
:1012E0009093070480930604089581E090E0909322
:1012F000050480930404089581E090E090932D0903
:1013000080932C09089510922D0910922C090895AC
:1013100081E090E0909305048093040408958F92F7
:101320009F92AF92BF92CF92DF92EF92FF920F9374
:101330001F938091000490910104019709F01FC14F
:101340000E94F6036093400470934104809342042A
:101350009093430400914404109145042091460465
:1013600030914704601771078207930740F4609338
:10137000440470934504809346049093470400917D
:1013800044041091450420914604309147046B01B8
:101390007C01C01AD10AE20AF30A97018601009380
:1013A00048041093490420934A0430934B0440911D
:1013B0000004509101044130510509F0D2C0409120
:1013C0000804509109044115510561F0A0912C04C5
:1013D000B0912D04E0912A04F0912B04AE17BF07C1
:1013E0000CF088C0E0912E04F0912F04EF2B71F4E3
:1013F00010925404109255041092560410925704FF
:10140000E1E0F0E0F0932F04E0932E04E0912E044D
:10141000F0912F04E130F10509F053C0C0904C0465
:10142000D0904D04E0904E04F0904F048090500412
:1014300090905104A0905204B090530480169106ED
:10144000A206B30608F0AEC00091540410915504F2
:1014500020915604309157040C151D052E053F05AB
:1014600008F0A0C0F0935904E09358040F5F1F4F99
:101470002F4F3F4F0093540410935504209356046C
:10148000309357046093440470934504809346045A
:10149000909347048091540490915504A091560470
:1014A000B09157048C159D05AE05BF0550F0109204
:1014B00059041092580482E090E090932F04809396
:1014C0002E0480912E0490912F04029799F410928B
:1014D00059041092580410922F0410922E0481E0A7
:1014E00080935A041092030410920204109207048D
:1014F0001092060441305105A1F520912C04309141
:101500002D0480912A0490912B04281739074CF15F
:10151000009148041091490420914A0430914B04F1
:101520008091500490915104A0915204B0915304C1
:1015300080179107A207B307D0F550935904409341
:1015400058048091400490914104A0914204B091CC
:1015500043048093440490934504A0934604B093BD
:10156000470480915804909159048130910519F4F1
:1015700028E020930201892B11F41092020180913E
:10158000000490910104892B11F4109202011F9123
:101590000F91FF90EF90DF90CF90BF90AF909F9012
:1015A0008F900895109259041092580473CF10929E
:1015B000590410925804D5CF8F929F92AF92BF9248
:1015C000CF92DF92EF92FF920F931F93CF93DF930F
:1015D000EC018B0120E030E040E752E46C817D813A
:1015E0008E819F810E94427B6B017C01CC86DD86CF
:1015F000EE86FF8688819981009799F4188619866E
:101600001A861B861B821A82DF91CF911F910F9140
:10161000FF90EF90DF90CF90BF90AF909F908F9012
:101620000895019789F788849984AA84BB84A501C9
:101630009401C701B6010E94877D18168CF4013011
:10164000110561F420E030E040E85FE3C501B4013A
:101650000E94737C688779878A879B871B821A829E
:10166000288539854A855B85C701B6010E94DC7AE9
:10167000181654F281E090E09B838A83C5CF8F9245
:101680009F92AF92BF92CF92DF92EF92FF920F9311
:101690001F93CF93DF93EC0188819981009799F490
:1016A000188619861A861B861B821A82DF91CF91B3
:1016B0001F910F91FF90EF90DF90CF90BF90AF9070
:1016C0009F908F900895019789F78B018884998462
:1016D000AA84BB84CC80DD80EE80FF80A7019601C8
:1016E000C501B4010E94DC7A87FF11C001301105E9
:1016F00061F42DEC3CEC4CEC5DE3C501B4010E94BF
:10170000737C688779878A879B871B821A822885E2
:1017100039854A855B85C701B6010E94DC7A1816B7
:101720002CF281E090E09B838A83C0CFFC0180850E
:101730009185892B11F473876287828D2285338589
:1017400061E02130310509F060E00C949703EF92DD
:10175000FF920F931F93CF93DF93EC017B018A01DC
:101760008A899B891816190644F50E946E039D8785
:101770008C878C859D858130910511F58E859F859F
:101780008017910734F4EA94EF2819F401969F87A3
:101790008E878E859F858017910744F0198A188A55
:1017A0008A819B81892B21F51D821C82DF91CF913B
:1017B0001F910F91FF90EF9008951D861C86D9CF41
:1017C000892BA1F7888999898017910734F4EA94C5
:1017D000EF2819F40196998B888B8889998980174D
:1017E000910724F31F861E868A819B81892BE1F64F
:1017F00081E090E09D838C83D9CFEF92FF920F938D
:101800001F93CF93DF93EC018B017A01452B09F0F5
:1018100053C088AD99AD1816190624F40E946E03C2
:10182000892B01F581E090E09FA38EA38CAD9DAD47
:101830001816190624F40E946E03892BB1F481E076
:1018400090E09BA78AA78AAD9BAD181619060CF0ED
:10185000CEC00E946E03892B59F481E090E099A7D5
:1018600088A708C01FA21EA2E1CF1BA61AA6EBCF15
:1018700019A618A688AD99AD1816190664F48EA19C
:101880009FA1892B41F485E090E09F878E8781E0BE
:1018900090E09B8B8A8B8CAD9DAD1816190664F475
:1018A0008AA59BA5892B41F484E090E09F878E87D1
:1018B00081E090E09D8B8C8B8A899B891816190694
:1018C000A4F08C899D89181619067CF08E899F8951
:1018D0001816190654F0888D998D181619062CF0D3
:1018E0008A8D9B8D1816190624F481E090E09F8361
:1018F0008E83EA94EF2881F41B8A1A8A1D8A1C8A37
:101900001F8A1E8A198E188E1B8E1A8E1F821E82A7
:101910001DAA1CAA1FAA1EAA288139818E819F8117
:101920002115310509F070C02C813D812130310530
:1019300009F060C0009709F063C03DA72CA73B8366
:101940002A834CA55DA52EA53FA5892B09F073C060
:101950004130510509F06FC08EAD9FAD18161906C4
:101960000CF0B3C061E02130310509F06AC08CA5EC
:101970009DA5009709F06CC08E819F81892B81F510
:101980001DAA1CAA8EA99FA92AA93BA98217930761
:1019900054F40130110539F401969FAB8EAB82E00F
:1019A00090E09F878E878EA99FA98217930724F0C6
:1019B00048A559A5452B21F04AAD5BAD452B11F447
:1019C0001F861E86821793075CF088A599A5813033
:1019D000910531F426E030E03F872E879F8B8E8B78
:1019E000DF91CF911F910F91FF90EF9008958CA5FB
:1019F0009DA535CF2115310519F41DA61CA69FCF35
:101A000081309105D1F39BCF2130310509F099CF79
:101A10002A813B812130310529F4009741F43DA70B
:101A20002CA78FCF232B19F41DA61CA68ACF81309B
:101A30009105D1F386CF2417350709F498CF60E0DC
:101A40008EAD0E9497038CA59DA59FA78EA78FCFD3
:101A5000019731F68E819F81892B11F61FAA1EAA4C
:101A60008CA99DA928A939A98217930754F401309C
:101A7000110539F401969DAB8CAB83E090E09F8714
:101A80008E878CA99DA9821793072CF048A559A58C
:101A90004130510521F04AAD5BAD452B21F441E0C9
:101AA00050E05F874E87821793070CF499CF88A583
:101AB00099A5892B09F094CF87E090E09F878E87C6
:101AC00081E090E0998F888F8BCF2130310511F222
:101AD000B6CFFC0101900020E9F73197AF01481B18
:101AE000590BBC0180E89BE00C94F704CF93DF9383
:101AF0000E94690DEC0181E595E00E94690D8C0F53
:101B00009D1FDF91CF9108952091A7093091A809D9
:101B10002F5F3F4F3093A8092093A70940911D0CD8
:101B200050911E0C4115510519F04217530734F41A
:101B300084E595E00E94760D80E008958130924022
:101B40001CF086E795E0F6CF81E00895CF93DF9310
:101B5000EC0180E89BE00E94E305892B29F080E8F6
:101B60009BE00E944C05F5CF209719F0CE010E9412
:101B7000690D6FEF80E89BE00E9439066FEF80E807
:101B80009BE00E9439066FEF80E89BE0DF91CF91E8
:101B90000C943906CF93DF9300D01F92CDB7DEB7F8
:101BA00044E050E0BC01CE0101960E94037C6981B3
:101BB0007A818B819C810F900F900F900F90DF9115
:101BC000CF9108950C94CA0D0C94137C0C94E40DE1
:101BD0000F931F93CF93DF93EC0188819981009736
:101BE00059F02A813B812617370730F081E0DF91D9
:101BF000CF911F910F9108958B016F5F7F4F0E94CE
:101C0000CD7E009759F0998388831B830A832C81AA
:101C10003D81232B59F7FC011082E8CF80E0E7CF0C
:101C2000EF92FF920F931F93CF93DF93611571058E
:101C300041F480E0DF91CF911F910F91FF90EF90E1
:101C40000895FB0101900020E9F73197E61BF70B9F
:101C5000E1F07B018C01DC011496CD91DC91CE0F7B
:101C6000DF1FBE010E94E80D882319F3F8012081CF
:101C7000318184819581B701820F931F0E94B77FC4
:101C8000D8011596DC93CE93149781E0D3CFFC0155
:101C900080819181009711F00C94447E0895EF9219
:101CA000FF920F931F93CF93DF93EC017B01198277
:101CB00018821B821A821D821C82FB010190002067
:101CC000E9F731978F01061B170BB8010E94E80D49
:101CD00028813981811113C02115310519F0C901FD
:101CE0000E94447E198218821D821C821B821A82E5
:101CF000DF91CF911F910F91FF90EF9008951D8379
:101D00000C83B701C901DF91CF911F910F91FF9013
:101D1000EF900C94B77FEF92FF920F931F93CF93A6
:101D2000DF9300D000D0CDB7DEB77C018B0163E537
:101D300075E0CE0101960E944F0EF701628173811A
:101D4000CE0101960E94100E60EA75E0CE01019668
:101D50000E94100EB801CE0101960E94100E65EA95
:101D600075E0CE0101960E94100E89819A810E9431
:101D7000A60D0E946005182FCE0101960E94470E05
:101D8000812F26960FB6F894DEBF0FBECDBFDF9130
:101D9000CF911F910F91FF90EF9008950F931F9394
:101DA000CF93DF9300D000D0CDB7DEB7FC01028126
:101DB00013810115110511F167EA75E0CE01019655
:101DC0000E944F0EB801CE0101960E94100E89812B
:101DD0009A810E94A60D0E946005182FCE010196DF
:101DE0000E94470E812F26960FB6F894DEBF0FBED5
:101DF000CDBFDF91CF911F910F91089510E0F2CFE9
:101E00008091B6089091B708019759F48BED94E151
:101E10000E94CE0E86E08093BC081092B708109204
:101E2000B60808958091B6089091B708019759F4C3
:101E30008FEE95E10E94CE0E83E08093BC08109255
:101E4000B7081092B60808958091B6089091B70827
:101E5000019751F487EC96E10E94CE0E1092BC08D7
:101E60001092B7081092B60808958F929F92AF9281
:101E7000BF92EF92FF920F931F93CF93DF93CDB753
:101E8000DEB760970FB6F894DEBF0FBECDBF7C0102
:101E90004A018E010F5F1F4F8AE0F80111928A9567
:101EA000E9F763E575E0CE010B960E944F0E4AE01C
:101EB000B801C4010E94E276F70162817381CE010C
:101EC0000B960E94100E6DEA75E0CE010B960E94F3
:101ED000100EB801CE010B960E94100E8B859C85CA
:101EE0000E94A60D0E946005182FCE010B960E943D
:101EF000470E812F60960FB6F894DEBF0FBECDBFA0
:101F0000DF91CF911F910F91FF90EF90BF90AF9015
:101F10009F908F9008956F927F928F929F92AF9231
:101F2000BF92CF92DF92EF92FF920F931F93CF93C6
:101F3000DF93CDB7DEB72C970FB6F894DEBF0FBE98
:101F4000CDBF3C01A982BA82CB82DC82ED82FE82C7
:101F50000F83188729873A874B875C87F4018E8D1A
:101F60009F8D28A139A1232B09F50197E1F4611474
:101F7000710419F44081518106C081E06816710432
:101F800059F442815381052E000C660B770BCE016C
:101F900001960E94350F0DC082E068167104F9F4B5
:101FA00044815581F0CF40855185EDCF6616770687
:101FB000E1F6C3012C960FB6F894DEBF0FBECDBF7D
:101FC000DF91CF911F910F91FF90EF90DF90CF9015
:101FD000BF90AF909F908F907F906F90089583E017
:101FE0006816710431F746815781CDCFEF92FF9289
:101FF0000F931F93CF93DF93CDB7DEB76896EEAC08
:10200000FFAC68976A968EAD9FAD6A976C962EADC1
:102010003FAD6C97088D198D232B31F50197B9F4DD
:102020000115110571F5F70140815181052E000C54
:10203000660B770BCE01865B9F4F0E94350FC80160
:1020400002970297B0F4F7014681578103C0F70168
:1020500040855185052E000C660B770BCE01865B03
:102060009F4F0E94350F05C02A8D3B8D0217130725
:10207000A9F6C801DF91CF911F910F91FF90EF90CA
:1020800008950130110521F4F70142815381CECF2B
:1020900004301105A4F2F70144815581C7CF0F9395
:1020A0001F93CF93DF93CDB7DEB70C851D8588A531
:1020B00099A5892BA9F44FE050E060E070E001158C
:1020C000110521F040E150E060E070E0CE014C9657
:1020D0000E94350FC801DF91CF911F910F91089594
:1020E0008E859F850817190731F7F4CF8F929F923D
:1020F000AF92BF92CF92DF92EF92FF920F931F9316
:10210000CF93DF93CDB7DEB72C970FB6F894DEBF31
:102110000FBECDBFA982BA82CB82DC82ED82FE8265
:102120000F83188729873A874B875C872E8D3F8DD1
:10213000232B19F5A4018C01892BE1F4052E000C49
:10214000660B770BCE0101960E94350FC8012C96C5
:102150000FB6F894DEBF0FBECDBFDF91CF911F91B8
:102160000F91FF90EF90DF90CF90BF90AF909F9036
:102170008F9008954C8D5D8DE1CF86179707D1F62E
:10218000E6CF8F929F92AF92BF92EF92FF920F9302
:102190001F93CF93DF93CDB7DEB760970FB6F89458
:1021A000DEBF0FBECDBF7C014A018E010F5F1F4F06
:1021B0008AE0F80111928A95E9F763E575E0CE01AE
:1021C0000B960E944F0E4AE0B801C4010E94E276CD
:1021D000F70162817381CE010B960E94100E6DEAA9
:1021E00075E0CE010B960E94100EB801CE010B9641
:1021F0000E94100E8B859C850E94A60D70E060E009
:10220000CE010B960E94E80D2B853C85811136C0CE
:102210002115310519F0C9010E94447E1C861B86D8
:10222000188A1F861E861D8663EB75E0CE010B960D
:102230000E94100EF70162817381CE010B960E94FD
:10224000100E8B859C850E94A60D0E946005182F9C
:10225000CE010B960E94470E812F60960FB6F89420
:10226000DEBF0FBECDBFDF91CF911F910F91FF90C9
:10227000EF90BF90AF909F908F900895188A1F861F
:1022800063E575E0C9010E94B77FCECF8F929F9220
:10229000AF92BF92CF92DF92EF92FF920F931F9374
:1022A000CF93DF93CDB7DEB72C970FB6F894DEBF90
:1022B0000FBECDBFA982BA82CB82DC82ED82FE82C4
:1022C0000F83188729873A874B875C872E8D3F8D30
:1022D000232B19F5A4018C01892BE1F4052E000CA8
:1022E000660B770BCE0101960E94C110C8012C9697
:1022F0000FB6F894DEBF0FBECDBFDF91CF911F9117
:102300000F91FF90EF90DF90CF90BF90AF909F9094
:102310008F9008954C8D5D8DE1CF86179707D1F68C
:10232000E6CF7F928F929F92AF92BF92CF92DF9231
:10233000EF92FF920F931F93CF93DF936091BA08B0
:102340007091BB0880910E098F9380910D098F9336
:102350001F928CE18F938AE1882E912CA0904B14D0
:10236000B0904C14C0904D14D0904E14E0904F1487
:10237000F090501400915114109152142091531464
:10238000309154144091551450915614809116096F
:10239000909117090E9446119093BB088093BA0848
:1023A0006091B8087091B90880910E098F9380915F
:1023B0000D098F931F92C1E0CF939AE5892E92E089
:1023C000992EA0902B13B0902C13C0902D13D09069
:1023D0002E13E0902F13F0903013009131131091D1
:1023E00032132091331330913413409135135091AF
:1023F000361380910109909102090E948B0F9093EE
:10240000B9088093B8086091AA087091AB088091D0
:102410000E098F9380910D098F931F92CF9320E522
:10242000822E22E0922EA0901F13B0902013C09015
:102430002113D0902213E0902313F09024130091E5
:1024400025131091261320912713309128134091C2
:10245000291350912A1380910309909104090E9435
:102460008B0F9093AB088093AA08C0E0D4E068A1DA
:1024700079A180910E098F9380910D098F931F92FE
:102480008AE38F9339E3832E912CA0909311B0901F
:102490009411C0909511D0909611E0909711F09002
:1024A00098110091991110919A1120919B113091DE
:1024B0009C1140919D1150919E118A819B810E9497
:1024C000461199A388A36AA17BA180910E098F93DD
:1024D00080910D098F931F924EE0742E7F925DE0E4
:1024E000852E912CA0909F11B090A011C090A111A9
:1024F000D090A211E090A311F090A4110091A51129
:102500001091A6112091A7113091A8114091A91105
:102510005091AA11888599850E9446119BA38AA390
:102520006CA17DA180910E098F9380910D098F93ED
:102530001F927F92A0908711B0908811C09089114E
:10254000D0908A11E0908B11F0908C1100918D1138
:1025500010918E1120918F11309190114091911115
:10256000509192118A859B850E9446119DA38CA350
:102570008DB79EB748960FB6F8949EBF0FBE8DBF1D
:10258000DF91CF911F910F91FF90EF90DF90CF904F
:10259000BF90AF909F908F907F9008958F929F9261
:1025A000AF92BF92CF92DF92EF92FF920F931F9361
:1025B000CF936091BA087091BB0880910E098F93F8
:1025C00080910D098F931F928CE18F938AE1882E61
:1025D000912CA090AB14B090AC14C090AD14D090DE
:1025E000AE14E090AF14F090B0140091B1141091BB
:1025F000B2142091B3143091B4144091B514509199
:10260000B61480911609909117090E944611909373
:10261000BB088093BA086091B8087091B90880919E
:102620000E098F9380910D098F931F92C1E0CF9374
:102630009AE5892E92E0992EA0904F13B0905013F6
:10264000C0905113D0905213E0905313F090541354
:102650000091551310915613209157133091581330
:102660004091591350915A13809101099091020998
:102670000E948B0F9093B9088093B8086091A808C6
:102680007091A90880910E098F9380910D098F9305
:102690001F92CF9320E5822E22E0922EA09043132A
:1026A000B0904413C0904513D0904613E090471368
:1026B000F09048130091491310914A1320914B1345
:1026C00030914C1340914D1350914E13809103095A
:1026D000909104090E948B0F9093A9088093A808F9
:1026E0008DB79EB70C960FB6F8949EBF0FBE8DBFE8
:1026F000CF911F910F91FF90EF90DF90CF90BF90FF
:10270000AF909F908F9008958F929F92AF92BF92BB
:10271000CF92DF92EF92FF920F931F93CF9360912E
:10272000BA087091BB0880910E098F9380910D09B2
:102730008F931F928CE18F938AE1882E912CA09029
:102740000B15B0900C15C0900D15D0900E15E090A3
:102750000F15F09010150091111510911215209180
:10276000131530911415409115155091161580913F
:102770001609909117090E9446119093BB08809307
:10278000BA086091B8087091B90880910E098F93CA
:1027900080910D098F931F92C1E0CF939AE5892E06
:1027A00092E0992EA0907313B0907413C09075139B
:1027B000D0907613E0907713F0907813009179130E
:1027C00010917A1320917B1330917C1340917D13EB
:1027D00050917E1380910109909102090E948B0F04
:1027E0009093B9088093B8086091A6087091A708E3
:1027F00080910E098F9380910D098F931F92CF9333
:1028000020E5822E22E0922EA0906713B0906813EC
:10281000C0906913D0906A13E0906B13F0906C1322
:1028200000916D1310916E1320916F1330917013FE
:102830004091711350917213809103099091040992
:102840000E948B0F9093A7088093A6088DB79EB720
:102850000C960FB6F8949EBF0FBE8DBFCF911F91FF
:102860000F91FF90EF90DF90CF90BF90AF909F902F
:102870008F9008958F929F92AF92BF92CF92DF92E6
:10288000EF92FF920F931F93CF936091BA087091CC
:10289000BB0880910E098F9380910D098F931F9231
:1028A0008CE18F938AE1882E912CA0906B15B090CB
:1028B0006C15C0906D15D0906E15E0906F15F0906E
:1028C000701500917115109172152091731530914A
:1028D0007415409175155091761580911609909157
:1028E00017090E9446119093BB088093BA08609123
:1028F000B8087091B90880910E098F9380910D09E5
:102900008F931F92C1E0CF939AE5892E92E0992E82
:10291000A0909713B0909813C0909913D0909A13E9
:10292000E0909B13F0909C1300919D1310919E13C7
:1029300020919F133091A0134091A1135091A213A5
:1029400080910109909102090E948B0F9093B90820
:102950008093B8086091A4087091A50880910E0931
:102960008F9380910D098F931F92CF9320E5822E34
:1029700022E0922EA0908B13B0908C13C0908D13F8
:10298000D0908E13E0908F13F090901300919113DC
:1029900010919213209193133091941340919513B9
:1029A0005091961380910309909104090E948B0F16
:1029B0009093A5088093A4088DB79EB70C960FB688
:1029C000F8949EBF0FBE8DBFCF911F910F91FF90C6
:1029D000EF90DF90CF90BF90AF909F908F90089531
:1029E0002F923F925F926F927F928F929F92AF92BF
:1029F000BF92CF92DF92EF92FF920F931F93CF93EC
:102A0000DF936091BA087091BB0880910E098F9393
:102A100080910D098F931F928BE18F9389E1882E0E
:102A2000912CA090BF15B090C015C090C115D0904A
:102A3000C215E090C315F090C4150091C515109112
:102A4000C6152091C7153091C8154091C9155091F0
:102A5000CA1580911609909117090E94461190930A
:102A6000BB088093BA086091B8087091B90880914A
:102A70000E098F9380910D098F931F92C1E0CF9320
:102A80009AE5892E92E0992EA090BB13B090BC13CA
:102A9000C090BD13D090BE13E090BF13F090C01350
:102AA0000091C1131091C2132091C3133091C4132C
:102AB0004091C5135091C61380910109909102096C
:102AC0000E948B0F9093B9088093B8086091A20878
:102AD0007091A30880910E098F9380910D098F93B7
:102AE0001F92CF9320E5822E22E0922EA090AF136A
:102AF000B090B013C090B113D090B213E090B31364
:102B0000F090B4130091B5131091B6132091B71340
:102B10003091B8134091B9135091BA1380910309C1
:102B2000909104090E948B0F9093A3088093A208B0
:102B300035EA632E3AE1732EF301648D758D809131
:102B40000E098F9380910D098F931F9243E5542EA8
:102B50005F9250E1852E912CA090230EB090240E10
:102B6000C090250ED090260EE090270EF090280EF3
:102B70000091290E10912A0E20912B0E30912C0ECF
:102B800040912D0E50912E0E828993890E947610CD
:102B9000F301958F848FC5E6DAE16C8D7D8D809190
:102BA0000E098F9380910D098F931F925F92A090D1
:102BB000170EB090180EC090190ED0901A0EE0901B
:102BC0001B0EF0901C0E00911D0E10911E0E2091F8
:102BD0001F0E3091200E4091210E5091220E8A89B5
:102BE0009B890E9476109D8F8C8F6091411A709105
:102BF000421A80910E098F9380910D098F931F9235
:102C00005F92A0900B0EB0900C0EC0900D0ED09065
:102C10000E0EE0900F0EF090100E0091110E10911C
:102C2000120E2091130E3091140E4091150E5091FA
:102C3000160E8091371A9091381A0E947610909350
:102C4000421A8093411A65EA262E69E1362EF10177
:102C5000648D758D80910E098F9380910D098F93EE
:102C60001F925F92A090FF0DB090000EC090010ED9
:102C7000D090020EE090030EF090040E0091050E2D
:102C80001091060E2091070E3091080E4091090E0A
:102C900050910A0E828993890E947610F101958FD6
:102CA000848F6091011A7091021A80910E098F939E
:102CB00080910D098F931F925F92A090F30DB090B9
:102CC000F40DC090F50DD090F60DE090F70DF0905A
:102CD000F80D0091F90D1091FA0D2091FB0D309136
:102CE000FC0D4091FD0D5091FE0D8091F7199091D2
:102CF000F8190E9476109093021A8093011A8DB7EA
:102D00009EB780960FB6F8949EBF0FBE8DBF6091A0
:102D100081197091821980910E098F9380910D090C
:102D20008F931F925F92A090E70DB090E80DC09036
:102D3000E90DD090EA0DE090EB0DF090EC0D0091D4
:102D4000ED0D1091EE0D2091EF0D3091F00D4091B1
:102D5000F10D5091F20D80917719909178190E94A0
:102D600076109093821980938119F301668D778D87
:102D700080910E098F9380910D098F931F925F921E
:102D8000A090DB0DB090DC0DC090DD0DD090DE0D7D
:102D9000E090DF0DF090E00D0091E10D1091E20D5B
:102DA0002091E30D3091E40D4091E50D5091E60D39
:102DB000848995890E947610F301978F868F6E8D96
:102DC0007F8D80910E098F9380910D098F931F92B3
:102DD0005F92A090CF0DB090D00DC090D10DD0904B
:102DE000D20DE090D30DF090D40D0091D50D10913F
:102DF000D60D2091D70D3091D80D4091D90D50911D
:102E0000DA0D8C899D890E9476109F8F8E8F60913C
:102E1000431A7091441A80910E098F9380910D0985
:102E20008F931F925F92A090C30DB090C40DC0907D
:102E3000C50DD090C60DE090C70DF090C80D009163
:102E4000C90D1091CA0D2091CB0D3091CC0D409140
:102E5000CD0D5091CE0D8091391A90913A1A0E9461
:102E600076109093441A8093431AF101668D778D02
:102E700080910E098F9380910D098F931F925F921D
:102E8000A090B70DB090B80DC090B90DD090BA0D0C
:102E9000E090BB0DF090BC0D0091BD0D1091BE0DEA
:102EA0002091BF0D3091C00D4091C10D5091C20DC8
:102EB000848995890E947610F101978F868F6091A1
:102EC000031A7091041A80910E098F9380910D0955
:102ED0008F931F925F92A090AB0DB090AC0DC090FD
:102EE000AD0DD090AE0DE090AF0DF090B00D009113
:102EF000B10D1091B20D2091B30D3091B40D4091F0
:102F0000B50D5091B60D8091F9199091FA190E9462
:102F100076109093041A8093031A6091831970912C
:102F2000841980910E098F9380910D098F931F92C0
:102F30005F92A0909F0DB090A00DC090A10DD09079
:102F4000A20DE090A30DF090A40D0091A50D10919D
:102F5000A60D2091A70D3091A80D4091A90D50917B
:102F6000AA0D8091791990917A190E947610909308
:102F7000841980938319F30160A171A180910E09D6
:102F80008F9380910D098F931F925F92A4E58A2EF3
:102F9000912CA090930DB090940DC090950DD09071
:102FA000960DE090970DF090980D0091990D10916D
:102FB0009A0D20919B0D30919C0D40919D0D50914B
:102FC0009E0D868997890E947610F30191A380A3B4
:102FD0008DB79EB780960FB6F8949EBF0FBE8DBF7B
:102FE00068A179A180910E098F9380910D098F932B
:102FF0001F925F92A090870DB090880DC090890DB0
:10300000D0908A0DE0908B0DF0908C0D00918D0D7D
:1030100010918E0D20918F0D3091900D4091910D5A
:103020005091920D8E899F890E94761099A388A352
:103030006091451A7091461A80910E098F93809184
:103040000D098F931F925F92A0907B0DB0907C0D25
:10305000C0907D0DD0907E0DE0907F0DF090800DA2
:103060000091810D1091820D2091830D3091840D7E
:103070004091850D5091860D80913B1A90913C1A9C
:103080000E9476109093461A8093451AF10160A130
:1030900071A180910E098F9380910D098F931F92DA
:1030A0005F92A0906F0DB090700DC090710DD09098
:1030B000720DE090730DF090740D0091750D1091EC
:1030C000760D2091770D3091780D4091790D5091CA
:1030D0007A0D868997890E947610F10191A380A3C9
:1030E0006091051A7091061A80910E098F93809154
:1030F0000D098F931F925F92A090630DB090640DA5
:10310000C090650DD090660DE090670DF090680D51
:103110000091690D10916A0D20916B0D30916C0D2D
:1031200040916D0D50916E0D8091FB199091FC199D
:103130000E9476109093061A8093051A6091851963
:103140007091861980910E098F9380910D098F934C
:103150001F925F92A090570DB090580DC090590DDE
:10316000D0905A0DE0905B0DF0905C0D00915D0DDC
:1031700010915E0D20915F0D3091600D4091610DB9
:103180005091620D80917B1990917C190E9476106C
:103190009093861980938519F30162A173A18091A0
:1031A0000E098F9380910D098F931F925F92A090CB
:1031B0004B0DB0904C0DC0904D0DD0904E0DE09049
:1031C0004F0DF090500D0091510D1091520D209126
:1031D000530D3091540D4091550D5091560D808DE9
:1031E000918D0E947610F30193A382A36AA17BA123
:1031F00080910E098F9380910D098F931F925F929A
:10320000A0903F0DB090400DC090410DD090420D68
:10321000E090430DF090440D0091450D1091460D46
:103220002091470D3091480D4091490D50914A0D24
:10323000888D998D0E9476109BA38AA36091471A6E
:103240007091481A80910E098F9380910D098F9388
:103250001F925F92A090330DB090340DC090350D49
:10326000D090360DE090370DF090380D0091390D6B
:1032700010913A0D20913B0D30913C0D40913D0D48
:1032800050913E0D80913D1A90913E1A0E94761009
:103290009093481A8093471A8DB79EB780960FB6C1
:1032A000F8949EBF0FBE8DBFF10162A173A1809102
:1032B0000E098F9380910D098F931F925F92A090BA
:1032C000270DB090280DC090290DD0902A0DE090C8
:1032D0002B0DF0902C0D00912D0D10912E0D2091A5
:1032E0002F0D3091300D4091310D5091320D808D68
:1032F000918D0E947610F10193A382A36091071A29
:103300007091081A80910E098F9380910D098F9307
:103310001F925F92A0901B0DB0901C0DC0901D0DD0
:10332000D0901E0DE0901F0DF090200D0091210D0A
:103330001091220D2091230D3091240D4091250DE7
:103340005091260D8091FD199091FE190E947610E2
:103350009093081A8093071A6091871970918819C1
:1033600080910E098F9380910D098F931F925F9228
:10337000A0900F0DB090100DC090110DD090120DB7
:10338000E090130DF090140D0091150D1091160D95
:103390002091170D3091180D4091190D50911A0D73
:1033A00080917D1990917E190E94761090938819D2
:1033B00080938719C0E9D8E068817981B8E16B2EE4
:1033C000B9E07B2E80910E098F9380910D098F9328
:1033D0001F925F92A090030DB090040DC090050D58
:1033E000D090060DE090070DF090080D0091090DAA
:1033F00010910A0D20910B0D30910C0D40910D0D87
:1034000050910E0DF301808191810E947610998375
:1034100088836A817B8180910E098F9380910D0949
:103420008F931F925F92A090F70CB090F80CC09011
:10343000F90CD090FA0CE090FB0CF090FC0C009191
:10344000FD0C1091FE0C2091FF0C3091000D40916D
:10345000010D5091020DF301828193810E9476103B
:103460009B838A836C817D8180910E098F938091EB
:103470000D098F931F925F92A090EB0CB090EC0C13
:10348000C090ED0CD090EE0CE090EF0CF090F00CB2
:103490000091F10C1091F20C2091F30C3091F40C8E
:1034A0004091F50C5091F60CF301848195810E94B6
:1034B00076109D838C836E817F8180910E098F931E
:1034C00080910D098F931F925F92A090DF0CB090B6
:1034D000E00CC090E10CD090E20CE090E30CF09096
:1034E000E40C0091E50C1091E60C2091E70C309172
:1034F000E80C4091E90C5091EA0CF3018681978128
:103500000E9476109F838E836885798580910E094D
:103510008F9380910D098F931F925F92A090D30C8F
:10352000B090D40CC090D50CD090D60CE090D70CB5
:10353000F090D80C0091D90C1091DA0C2091DB0C92
:103540003091DC0C4091DD0C5091DE0CF301808554
:1035500091850E947610998788878DB79EB780964F
:103560000FB6F8949EBF0FBE8DBF6A857B85809194
:103570000E098F9380910D098F931F925F92A090F7
:10358000C70CB090C80CC090C90CD090CA0CE09089
:10359000CB0CF090CC0C0091CD0C1091CE0C209166
:1035A000CF0C3091D00C4091D10C5091D20CF30142
:1035B000828593850E9476109B878A876C857D859E
:1035C00080910E098F9380910D098F931F925F92C6
:1035D000A090430CB090440CC090450CD090460C89
:1035E000E090470CF090480C0091490C10914A0C67
:1035F00020914B0C30914C0C40914D0C50914E0C45
:10360000F301848595850E9476109D878C87688953
:10361000798980910E098F9380910D098F931F9264
:1036200080E18F9313E5812E912CA090370CB09000
:10363000380CC090390CD0903A0CE0903B0CF090D4
:103640003C0C00913D0C10913E0C20913F0C3091B0
:10365000400C4091410C5091420CF30180899189BA
:103660000E947610998B888B6E857F8580910E09DC
:103670008F9380910D098F931F925F9200E1802EAE
:10368000912CA0902B0CB0902C0CC0902D0CD090B5
:103690002E0CE0902F0CF090300C0091310C10911A
:1036A000320C2091330C3091340C4091350C5091F8
:1036B000360CF301868597850E9476109F878E874A
:1036C00060918E0870918F0880910E098F93809180
:1036D0000D098F931F928EE08F938DE0882E912C91
:1036E000A0901F0CB090200CC090210CD090220C08
:1036F000E090230CF090240C0091250C1091260CE6
:103700002091270C3091280C4091290C50912A0CC3
:1037100080918C0890918D080E94461190938F089B
:1037200080938E088DB79EB744960FB6F8949EBFCF
:103730000FBE8DBFDF91CF911F910F91FF90EF9042
:10374000DF90CF90BF90AF909F908F907F906F90C1
:103750005F903F902F9008950F931F93CF93DF9327
:10376000CDB7DEB70A851B8588A599A5892BA9F455
:1037700049E050E060E070E00115110521F04AE0F9
:1037800050E060E070E0CE014C960E94C110C8018C
:10379000DF91CF911F910F9108958A899B8980179E
:1037A000910731F7F4CF0F931F93CF93DF93CDB7EA
:1037B000DEB70885198588A599A5892BA9F44DE060
:1037C00050E060E070E00115110521F04EE050E09E
:1037D00060E070E0CE014C960E94C110C801DF91FC
:1037E000CF911F910F91089588899989801791072A
:1037F00031F7F4CF8F929F92AF92BF92CF92DF9228
:10380000EF92FF920F931F93CF93DF93CDB7DEB765
:103810002C970FB6F894DEBF0FBECDBFA982BA8237
:10382000CB82DC82ED82FE820F83188729873A875C
:103830004B875C87892819F58C014DE050E060E0EA
:1038400070E0892B21F04EE050E060E070E0CE01A6
:1038500001960E94C110C8012C960FB6F894DEBFE5
:103860000FBECDBFDF91CF911F910F91FF90EF90D1
:10387000DF90CF90BF90AF909F908F900895861764
:103880009707D1F6E9CF8F929F92AF92BF92CF92D6
:10389000DF92EF92FF920F931F93CF936091BA083C
:1038A0007091BB0880910E098F9380910D098F93C1
:1038B0001F928CE18F938AE1882E912CA0904F1655
:1038C000B0905016C0905116D0905216E0905316FA
:1038D000F0905416009155161091561620915716D7
:1038E000309158164091591650915A1680911609E8
:1038F000909117090E9446119093BB088093BA08D3
:103900006091B8087091B90880910E098F938091E9
:103910000D098F931F92C1E0CF939AE5892E92E013
:10392000992EA0900314B0900414C0900514D09068
:103930000614E0900714F0900814009109141091F7
:103940000A1420910B1430910C1440910D145091D5
:103950000E1480910109909102090E948B0F90939F
:10396000B9088093B80860917E0870917F088091B3
:103970000E098F9380910D098F931F92CF9320E5AD
:10398000822E22E0922EA090F713B090F813C090F0
:10399000F913D090FA13E090FB13F090FC13009110
:1039A000FD131091FE132091FF13309100144091EC
:1039B00001145091021480910309909104090E940E
:1039C0008B0F90937F0880937E0880900D099090D4
:1039D0000E0960917C0870917D08A090DF10B09076
:1039E000E010C090E110D090E210E090E310F09071
:1039F000E4100091E5101091E6102091E71030914D
:103A0000E8104091E9105091EA1080919402909151
:103A100095020E94FA1B90937D0880937C08809009
:103A20000D0990900E0960917A0870917B08A09022
:103A3000D310B090D410C090D510D090D610E09094
:103A4000D710F090D8100091D9101091DA10209171
:103A5000DB103091DC104091DD105091DE10809130
:103A6000DD089091DE080E94FA1B90937B088093FA
:103A70007A0880900D0990900E09609178087091F5
:103A80007908A090C710B090C810C090C910D0900D
:103A9000CA10E090CB10F090CC100091CD10109196
:103AA000CE102091CF103091D0104091D110509174
:103AB000D2108091D9089091DA080E94FA1B909355
:103AC00079088093780880900D0990900E09609194
:103AD000760870917708A090BB10B090BC10C09091
:103AE000BD10D090BE10E090BF10F090C0100091BB
:103AF000C1101091C2102091C3103091C410409198
:103B0000C5105091C6108091DB089091DC080E948E
:103B1000FA1B909377088093760880900D09909017
:103B20000E096091740870917508A090AF10B09064
:103B3000B010C090B110D090B210E090B310F090DF
:103B4000B4100091B5101091B6102091B7103091BB
:103B5000B8104091B9105091BA108091DF0890913F
:103B6000E0080E94FA1B9093750880937408809077
:103B70000D0990900E096091720870917308A090E1
:103B80004F10B0905010C0905110D0905210E09053
:103B90005310F09054100091551010915610209130
:103BA0005710309158104091591050915A108091EF
:103BB000EB089091EC080E94FA1B90937308809395
:103BC000720880900D0990900E09609170087091B4
:103BD0007108A0904310B0904410C0904510D09050
:103BE0004610E0904710F090481000914910109155
:103BF0004A1020914B1030914C1040914D10509133
:103C00004E108091F1089091F2080E94FA1B909357
:103C100071088093700880900D0990900E09609152
:103C20006E0870916F08A0903710B0903810C09057
:103C30003910D0903A10E0903B10F0903C10009179
:103C40003D1010913E1020913F1030914010409156
:103C50004110509142108091F5089091F6080E9411
:103C6000FA1B90936F0880936E0880900D099090D6
:103C70000E0960916C0870916D08A090D70FB090FC
:103C8000D80FC090D90FD090DA0FE090DB0FF090F2
:103C9000DC0F0091DD0F1091DE0F2091DF0F3091CE
:103CA000E00F4091E10F5091E20F80911409909143
:103CB00015090E94FA1B90936D0880936C0860911F
:103CC0006A0870916B0880910E098F9380910D099D
:103CD0008F931F9282E18F9330E1832E912CA090DD
:103CE000BF0FB090C00FC090C10FD090C20FE09036
:103CF000C30FF090C40F0091C50F1091C60F209113
:103D0000C70F3091C80F4091C90F5091CA0F8091D1
:103D10000709909108090E94761090936B08809390
:103D20006A08609168087091690880910E098F9304
:103D300080910D098F931F9285E38F9344E3842E26
:103D4000912CA090B30FB090B40FC090B50FD0904D
:103D5000B60FE090B70FF090B80F0091B90F109127
:103D6000BA0F2091BB0F3091BC0F4091BD0F509105
:103D7000BE0F80910604909107040E944611909313
:103D80006908809368088DB79EB744960FB6F8947B
:103D90009EBF0FBE8DBFCF911F910F91FF90EF90EF
:103DA000DF90CF90BF90AF909F908F9008950F932A
:103DB0001F93CF93DF93CDB7DEB766968EAD9FADE1
:103DC00066970A851B85892BB1F44EE250E060E0CE
:103DD00070E00115110521F04FE250E060E070E065
:103DE000CE01885B9F4F0E94C110C801DF91CF9127
:103DF0001F910F9108958A899B890817190729F740
:103E0000F4CF0F931F93CF93DF93CDB7DEB76696B2
:103E10008EAD9FAD669708851985892BB1F44CE26C
:103E200050E060E070E00115110521F04DE250E036
:103E300060E070E0CE01885B9F4F0E94C110C80116
:103E4000DF91CF911F910F910895888999898017EB
:103E5000910729F7F4CF2F923F924F925F927F9272
:103E60008F929F92AF92BF92CF92DF92EF92FF928A
:103E70000F931F93CF93DF936091BA087091BB08A3
:103E800080910E098F9380910D098F931F928CE181
:103E90008F938AE1882E912CA0900716B090081677
:103EA000C0900916D0900A16E0900B16F0900C16F0
:103EB00000910D1610910E1620910F1630911016CC
:103EC0004091111650911216809116099091170980
:103ED0000E9446119093BB088093BA086091B8087D
:103EE0007091B90880910E098F9380910D098F937D
:103EF0001F92772473947F929AE5892E92E0992EEF
:103F0000A090DF13B090E013C090E113D090E213C3
:103F1000E090E313F090E4130091E5131091E613A1
:103F20002091E7133091E8134091E9135091EA137F
:103F300080910109909102090E948B0F9093B9081A
:103F40008093B80860918A0870918B0880910E095F
:103F50008F9380910D098F931F927F9220E5822E7F
:103F600022E0922EA090D313B090D413C090D5131A
:103F7000D090D613E090D713F090D8130091D913B6
:103F80001091DA132091DB133091DC134091DD1393
:103F90005091DE1380910309909104090E948B0FC8
:103FA00090938B0880938A0880910E098F9380915B
:103FB0000D098F938DB79EB70C970FB6F8949EBFDF
:103FC0000FBE8DBFADB7BEB711968CE0E3E1F3E154
:103FD00001900D928A95E1F7EDB7FEB7E054F10933
:103FE0000FB6F894FEBF0FBEEDBFADB7BEB71196CA
:103FF00080E4E5EAFAE101900D928A95E1F70E94EA
:10400000011F35EAA32E3AE1B32EF501918780878F
:104010008DB79EB7865A9F4F0FB6F8949EBF0FBEBE
:104020008DBF80910E098F9380910D098F93EDB70D
:10403000FEB73C970FB6F894FEBF0FBEEDBFADB70D
:10404000BEB711968CE0E3EEF2E101900D928A95F5
:10405000E1F78DB79EB7805491090FB6F8949EBFD3
:104060000FBE8DBFADB7BEB7119680E4E5E6FAE1AD
:1040700001900D928A95E1F70E94011F45E6C42E3A
:104080004AE1D42EF601918780878DB79EB7825B77
:104090009F4F0FB6F8949EBF0FBE8DBF80910E0943
:1040A0008F9380910D098F93EDB7FEB73C970FB6B4
:1040B000F894FEBF0FBEEDBFADB7BEB711968CE052
:1040C000E3EBF2E101900D928A95E1F78DB79EB78F
:1040D000805491090FB6F8949EBF0FBE8DBFADB747
:1040E000BEB7119680E4E5E2FAE101900D928A955F
:1040F000E1F70E94011F55E2E52E5AE1F52EF70186
:10410000918780878DB79EB7825B9F4F0FB6F894DB
:104110009EBF0FBE8DBF80910E098F9380910D09B8
:104120008F93EDB7FEB73C970FB6F894FEBF0FBE66
:10413000EDBFADB7BEB711968CE0E3E8F2E10190B8
:104140000D928A95E1F78DB79EB7805491090FB60D
:10415000F8949EBF0FBE8DBFADB7BEB7119680E479
:10416000E5EAF9E101900D928A95E1F70E94011FBD
:1041700005EA19E1F801918780878DB79EB7825BC8
:104180009F4F0FB6F8949EBF0FBE8DBF80910E0952
:104190008F9380910D098F93EDB7FEB73C970FB6C3
:1041A000F894FEBF0FBEEDBFADB7BEB711968CE061
:1041B000E3E5F2E101900D928A95E1F78DB79EB7A4
:1041C000805491090FB6F8949EBF0FBE8DBFADB756
:1041D000BEB7119680E4E5E2F9E101900D928A956F
:1041E000E1F70E94011F65E2862E69E1962EF40137
:1041F000918780878DB79EB7825B9F4F0FB6F894EB
:104200009EBF0FBE8DBF80910E098F9380910D09C7
:104210008F93EDB7FEB73C970FB6F894FEBF0FBE75
:10422000EDBFADB7BEB711968CE0E3E2F2E10190CD
:104230000D928A95E1F78DB79EB7805491090FB61C
:10424000F8949EBF0FBE8DBFADB7BEB7119680E488
:10425000E5EEF9E101900D928A95E1F70E94011FC8
:1042600075EE472E79E1572EF201918780878DB741
:104270009EB7825B9F4F0FB6F8949EBF0FBE8DBF57
:1042800080910E098F9380910D098F93EDB7FEB742
:104290003C970FB6F894FEBF0FBEEDBFADB7BEB7EB
:1042A00011968CE0E3EFF1E101900D928A95E1F730
:1042B0008DB79EB7805491090FB6F8949EBF0FBE7C
:1042C0008DBFADB7BEB7119680E4E5E6F9E1019088
:1042D0000D928A95E1F70E94011FE5E62E2EE9E195
:1042E0003E2EF101918780878DB79EB7825B9F4FED
:1042F0000FB6F8949EBF0FBE8DBF80910E098F93AD
:1043000080910D098F93EDB7FEB73C970FB6F894E7
:10431000FEBF0FBEEDBFADB7BEB711968CE0E7E0B4
:10432000F3E101900D928A95E1F78DB79EB7805425
:1043300091090FB6F8949EBF0FBE8DBFADB7BEB743
:10434000119680E4F50101900D928A95E1F70E94A3
:10435000D71EF501938782878DB79EB7825B9F4FEB
:104360000FB6F8949EBF0FBE8DBF80910E098F933C
:1043700080910D098F93EDB7FEB73C970FB6F89477
:10438000FEBF0FBEEDBFADB7BEB711968CE0E7ED37
:10439000F2E101900D928A95E1F78DB79EB78054B6
:1043A00091090FB6F8949EBF0FBE8DBFADB7BEB7D3
:1043B000119680E4F60101900D928A95E1F70E9432
:1043C000D71EF601938782878DB79EB7825B9F4F7A
:1043D0000FB6F8949EBF0FBE8DBF80910E098F93CC
:1043E00080910D098F93EDB7FEB73C970FB6F89407
:1043F000FEBF0FBEEDBFADB7BEB711968CE0E7EACA
:10440000F2E101900D928A95E1F78DB79EB7805445
:1044100091090FB6F8949EBF0FBE8DBFADB7BEB762
:10442000119680E4F70101900D928A95E1F70E94C0
:10443000D71EF701938782878DB79EB7825B9F4F08
:104440000FB6F8949EBF0FBE8DBF80910E098F935B
:1044500080910D098F93EDB7FEB73C970FB6F89496
:10446000FEBF0FBEEDBFADB7BEB711968CE0E7E75C
:10447000F2E101900D928A95E1F78DB79EB78054D5
:1044800091090FB6F8949EBF0FBE8DBFADB7BEB7F2
:10449000119680E4F80101900D928A95E1F70E944F
:1044A000D71EF801938782878DB79EB7825B9F4F97
:1044B0000FB6F8949EBF0FBE8DBF80910E098F93EB
:1044C00080910D098F93EDB7FEB73C970FB6F89426
:1044D000FEBF0FBEEDBFADB7BEB711968CE0E7E4EF
:1044E000F2E101900D928A95E1F78DB79EB7805465
:1044F00091090FB6F8949EBF0FBE8DBFADB7BEB782
:10450000119680E4F40101900D928A95E1F70E94E2
:10451000D71EF401938782878DB79EB7825B9F4F2A
:104520000FB6F8949EBF0FBE8DBF80910E098F937A
:1045300080910D098F93EDB7FEB73C970FB6F894B5
:10454000FEBF0FBEEDBFADB7BEB711968CE0E7E181
:10455000F2E101900D928A95E1F78DB79EB78054F4
:1045600091090FB6F8949EBF0FBE8DBFADB7BEB711
:10457000119680E4F20101900D928A95E1F70E9474
:10458000D71EF201938782878DB79EB7825B9F4FBC
:104590000FB6F8949EBF0FBE8DBF80910E098F930A
:1045A00080910D098F93EDB7FEB73C970FB6F89445
:1045B000FEBF0FBEEDBFADB7BEB711968CE0E7EE04
:1045C000F1E101900D928A95E1F78DB79EB7805485
:1045D00091090FB6F8949EBF0FBE8DBFADB7BEB7A1
:1045E000119680E4F10101900D928A95E1F70E9405
:1045F000D71EF101938782878DB79EB7825B9F4F4D
:104600000FB6F8949EBF0FBE8DBF80910E098F9399
:1046100080910D098F931F927F92C6E4D2E0DF93C1
:10462000CF938DB79EB70C970FB6F8949EBF0FBE71
:104630008DBFADB7BEB711968CE0EFEEF2E1019001
:104640000D928A95E1F7EDB7FEB7E054F1090FB688
:10465000F894FEBF0FBEEDBFADB7BEB7119680E4B4
:10466000F50101900D928A95E1F70E94F60FF50190
:10467000918B808B8DB79EB78E5A9F4F0FB6F89453
:104680009EBF0FBE8DBF80910E098F9380910D0943
:104690008F931F927F92DF93CF938DB79EB70C9726
:1046A0000FB6F8949EBF0FBE8DBFADB7BEB71196C3
:1046B0008CE0EFEBF2E101900D928A95E1F7EDB716
:1046C000FEB7E054F1090FB6F894FEBF0FBEEDBF80
:1046D000ADB7BEB7119680E4F60101900D928A95B0
:1046E000E1F70E94F60FF601918B808B8DB79EB794
:1046F0008E5A9F4F0FB6F8949EBF0FBE8DBF80910C
:104700000E098F9380910D098F931F927F92DF93F3
:10471000CF938DB79EB70C970FB6F8949EBF0FBE80
:104720008DBFADB7BEB711968CE0EFE8F2E1019016
:104730000D928A95E1F7EDB7FEB7E054F1090FB697
:10474000F894FEBF0FBEEDBFADB7BEB7119680E4C3
:10475000F70101900D928A95E1F70E94F60FF7019B
:10476000918B808B8DB79EB78E5A9F4F0FB6F89462
:104770009EBF0FBE8DBF80910E098F9380910D0952
:104780008F931F927F92DF93CF938DB79EB70C9735
:104790000FB6F8949EBF0FBE8DBFADB7BEB71196D2
:1047A0008CE0EFE5F2E101900D928A95E1F7EDB72B
:1047B000FEB7E054F1090FB6F894FEBF0FBEEDBF8F
:1047C000ADB7BEB7119680E4F80101900D928A95BD
:1047D000E1F70E94F60FF801918B808B8DB79EB7A1
:1047E0008E5A9F4F0FB6F8949EBF0FBE8DBF80911B
:1047F0000E098F9380910D098F931F927F92DF9303
:10480000CF938DB79EB70C970FB6F8949EBF0FBE8F
:104810008DBFADB7BEB711968CE0EFE2F2E101902B
:104820000D928A95E1F7EDB7FEB7E054F1090FB6A6
:10483000F894FEBF0FBEEDBFADB7BEB7119680E4D2
:10484000F40101900D928A95E1F70E94F60FF401B0
:10485000918B808B8DB79EB78E5A9F4F0FB6F89471
:104860009EBF0FBE8DBF80910E098F9380910D0961
:104870008F931F927F92DF93CF938DB79EB70C9744
:104880000FB6F8949EBF0FBE8DBFADB7BEB71196E1
:104890008CE0EFEFF1E101900D928A95E1F7EDB731
:1048A000FEB7E054F1090FB6F894FEBF0FBEEDBF9E
:1048B000ADB7BEB7119680E4F20101900D928A95D2
:1048C000E1F70E94F60FF201918B808B8DB79EB7B6
:1048D0008E5A9F4F0FB6F8949EBF0FBE8DBF80912A
:1048E0000E098F9380910D098F931F927F92DF9312
:1048F000CF938DB79EB70C970FB6F8949EBF0FBE9F
:104900008DBFADB7BEB711968CE0EFECF1E1019031
:104910000D928A95E1F7EDB7FEB7E054F1090FB6B5
:10492000F894FEBF0FBEEDBFADB7BEB7119680E4E1
:10493000F10101900D928A95E1F70E94F60FF101C5
:10494000918B808B8DB79EB78E5A9F4F0FB6F89480
:104950009EBF0FBE8DBF80910E098F9380910D0970
:104960008F93EDB7FEB73C970FB6F894FEBF0FBE1E
:10497000EDBFADB7BEB711968CE0EBE7F1E101906A
:104980000D928A95E1F78DB79EB744970FB6F894CC
:104990009EBF0FBE8DBFADB7BEB7119684E1E1E1FA
:1049A000F9E101900D928A95E1F70E94D31BC1E1D4
:1049B000D9E199878887EDB7FEB7B2960FB6F8941C
:1049C000FEBF0FBEEDBF80910E098F9380910D0940
:1049D0008F938DB79EB70C970FB6F8949EBF0FBEFE
:1049E0008DBFADB7BEB711968CE0EFE6F1E1019057
:1049F0000D928A95E1F7EDB7FEB774970FB6F8946C
:104A0000FEBF0FBEEDBFADB7BEB7119684E1FE018C
:104A100001900D928A95E1F70E94AC1B9B878A87D3
:104A20008DB79EB782960FB6F8949EBF0FBE8DBF0E
:104A300080910E098F9380910D098F93EDB7FEB78A
:104A40003C970FB6F894FEBF0FBEEDBFADB7BEB733
:104A500011968CE0E3E6F1E101900D928A95E1F781
:104A60008DB79EB744970FB6F8949EBF0FBE8DBF0B
:104A7000ADB7BEB7119684E1FE0101900D928A9503
:104A8000E1F70E944F109F838E83EDB7FEB7B29679
:104A90000FB6F894FEBF0FBEEDBF80910E098F9345
:104AA00080910D098F938DB79EB70C970FB6F89430
:104AB0009EBF0FBE8DBFADB7BEB711968CE0E7E5C8
:104AC000F1E101900D928A95E1F7EDB7FEB7749789
:104AD0000FB6F894FEBF0FBEEDBFADB7BEB71196CF
:104AE00084E1EDEFF8E101900D928A95E1F70E94E3
:104AF000D31BCDEFD8E1998788878DB79EB7829673
:104B00000FB6F8949EBF0FBE8DBF80910E098F9394
:104B100080910D098F93EDB7FEB73C970FB6F894CF
:104B2000FEBF0FBEEDBFADB7BEB711968CE0EBE494
:104B3000F1E101900D928A95E1F78DB79EB7449708
:104B40000FB6F8949EBF0FBE8DBFADB7BEB711961E
:104B500084E1FE0101900D928A95E1F70E94AC1B61
:104B60009B878A87EDB7FEB7B2960FB6F894FEBF63
:104B70000FBEEDBF80910E098F9380910D098F9329
:104B80008DB79EB70C970FB6F8949EBF0FBE8DBF22
:104B9000ADB7BEB711968CE0EFE3F1E101900D9255
:104BA0008A95E1F7EDB7FEB774970FB6F894FEBF9C
:104BB0000FBEEDBFADB7BEB7119684E1FE01019007
:104BC0000D928A95E1F70E944F109F838E838DB7D7
:104BD0009EB782960FB6F8949EBF0FBE8DBF809190
:104BE0000E098F9380910D098F93EDB7FEB73C9717
:104BF0000FB6F894FEBF0FBEEDBFADB7BEB71196AE
:104C00008CE0E3E3F1E101900D928A95E1F78DB735
:104C10009EB744970FB6F8949EBF0FBE8DBFADB739
:104C2000BEB7119684E1E9EEF8E101900D928A9504
:104C3000E1F70E94D31BC9EED8E199878887EDB7C9
:104C4000FEB7B2960FB6F894FEBF0FBEEDBF8091CF
:104C50000E098F9380910D098F938DB79EB70C9796
:104C60000FB6F8949EBF0FBE8DBFADB7BEB71196FD
:104C70008CE0E7E2F1E101900D928A95E1F7EDB762
:104C8000FEB774970FB6F894FEBF0FBEEDBFADB779
:104C9000BEB7119684E1FE0101900D928A95E1F76D
:104CA0000E94AC1B9B878A878DB79EB782960FB6F2
:104CB000F8949EBF0FBE8DBF80910E098F93809197
:104CC0000D098F93EDB7FEB73C970FB6F894FEBF72
:104CD0000FBEEDBFADB7BEB711968CE0EBE1F1E1D1
:104CE00001900D928A95E1F78DB79EB744970FB664
:104CF000F8949EBF0FBE8DBFADB7BEB7119684E1CD
:104D0000FE0101900D928A95E1F70E944F109F835A
:104D10008E83EDB7FEB7B2960FB6F894FEBF0FBE06
:104D2000EDBF80910E098F9380910D098F938DB700
:104D30009EB70C970FB6F8949EBF0FBE8DBFADB750
:104D4000BEB711968CE0EFE0F1E101900D928A95EB
:104D5000E1F7EDB7FEB774970FB6F894FEBF0FBE3C
:104D6000EDBFADB7BEB7119684E1E5EDF8E1019076
:104D70000D928A95E1F70E944F109093DC18809372
:104D8000DB188DB79EB782960FB6F8949EBF0FBE04
:104D90008DBF80900D0990900E09609188087091E8
:104DA0008908A090EB10B090EC10C090ED10D0905E
:104DB000EE10E090EF10F090F0100091F1101091D3
:104DC000F2102091F3103091F4104091F5105091B1
:104DD000F6108091FF08909100090E94FA1B9093B1
:104DE00089088093880880900D0990900E09609141
:104DF000860870918708A0900311B0900411C090AC
:104E00000511D0900611E0900711F0900811009163
:104E1000091110910A1120910B1130910C11409140
:104E20000D1150910E1180918408909185080E9477
:104E3000FA1B909387088093860880900D099090C4
:104E40000E096091820870918308A090F710B090CD
:104E5000F810C090F910D090FA10E090FB10F0908C
:104E6000FC100091FD101091FE102091FF10309168
:104E70000011409101115091021180918008909190
:104E800081080E94FA1B9093830880938208DF9127
:104E9000CF911F910F91FF90EF90DF90CF90BF9037
:104EA000AF909F908F907F905F904F903F902F900A
:104EB0000895ECEAF8E08AE0DF011D928A95E9F7AF
:104EC00008954F925F926F927F92AF92BF92CF926E
:104ED000DF92EF92FF920F931F93CF93DF93CDB7A3
:104EE000DEB72C970FB6F894DEBF0FBECDBF2B01F7
:104EF0003C01A982BA82CB82DC82ED82FE820F83E2
:104F0000188729873A874B875C870E9459270CEAC4
:104F100018E021E045E0C301B2010E94C076B8016B
:104F2000CE0101960E948B0E2C960FB6F894DEBF30
:104F30000FBECDBFDF91CF911F910F91FF90EF90EA
:104F4000DF90CF90BF90AF907F906F905F904F9029
:104F500008954F925F926F927F928F929F92AF923D
:104F6000BF92CF92DF92EF92FF920F931F93CF9356
:104F7000DF93CDB7DEB7A8970FB6F894DEBF0FBEAC
:104F8000CDBF6091BA087091BB0880910E098F93D4
:104F900080910D098F931F928CE18F935AE1852E9A
:104FA000912CA0909716B0909816C0909916D0901A
:104FB0009A16E0909B16F0909C1600919D16109109
:104FC0009E1620919F163091A0164091A1165091E7
:104FD000A21680911609909117090E94461190938C
:104FE000BB088093BA086091B8087091B9088091A5
:104FF0000E098F9380910D098F931F9281E08F93FB
:10500000EAE58E2EE2E09E2EA0902714B0902814A0
:10501000C0902914D0902A14E0902B14F0902C14F6
:1050200000912D1410912E1420912F1430913014D2
:1050300040913114509132148091010990910209EC
:105040000E948B0F9093B9088093B80840910D0986
:1050500050910E092091660830916708009103096C
:10506000109104098CE0EBE9FEE0DE01119601905D
:105070000D928A95E1F70FB6F894DEBF0FBECDBF53
:10508000452B71F540913C0250913D0201151105EF
:1050900071F040913E0250913F020130110539F00C
:1050A0000430110564F04091400250914102052EF8
:1050B000000C660B770BCE0101960E94C110C8014F
:1050C0000297029780F44091420250914302052ECC
:1050D000000C660B770BCE0101960E94C11003C035
:1050E0002017310779F610936708009366086091DE
:1050F00064087091650880910E098F9380910D0965
:105100008F9380918D088F9380918C088F9392E379
:10511000892E92E0992EA090830EB090840EC090BC
:10512000850ED090860EE090870EF090880E00914C
:10513000890E10918A0E20918B0E30918C0E409129
:105140008D0E50918E0E80916208909163080E949E
:105150008B0F90936508809364086091600870914C
:10516000610880910E098F9380910D098F931F9292
:10517000772473947F9220E5822E22E0922EA090D5
:105180001B14B0901C14C0901D14D0901E14E090FD
:105190001F14F090201400912114109122142091DA
:1051A0002314309124144091251450912614809199
:1051B0000309909104090E948B0F909361088093DA
:1051C0006008609186087091870880910E098F931E
:1051D00080910D098F931F923CE3632E6F924DE3F4
:1051E000842E912CA0906B0FB0906C0FC0906D0F1F
:1051F000D0906E0FE0906F0FF090700F0091710FD4
:105200001091720F2091730F3091740F4091750FB0
:105210005091760F80918408909185080E947610B5
:105220009093870880938608609182087091830824
:1052300080910E098F9380910D098F931F926F9229
:10524000A0905F0FB090600FC090610FD090620F80
:10525000E090630FF090640F0091650F1091660F5E
:105260002091670F3091680F4091690F50916A0F3C
:1052700080918008909181080E9476109093830815
:105280008093820880910E098F9380910D098F93EE
:10529000809195028F93809194028F9308E212E09F
:1052A0001F930F93EDB7FEB73C970FB6F894FEBF70
:1052B0000FBEEDBFADB7BEB711968CE0E3E5FFE0E2
:1052C00001900D928A95E1F78DB79EB780549109B0
:1052D0000FB6F8949EBF0FBE8DBFADB7BEB7119687
:1052E00080E4E5EAFAE101900D928A95E1F70E94E7
:1052F000F60F9093B61A8093B51A0FB6F894DEBFE6
:105300000FBECDBF80910E098F9380910D098F93B1
:105310008091DE088F938091DD088F931F930F9308
:105320008DB79EB70C970FB6F8949EBF0FBE8DBF7A
:10533000ADB7BEB711968CE0E7E4FFE001900D92A7
:105340008A95E1F7EDB7FEB7E054F1090FB6F8948E
:10535000FEBF0FBEEDBFADB7BEB7119680E4E5E668
:10536000FAE101900D928A95E1F70E94F60F909371
:10537000761A8093751A0FB6F894DEBF0FBECDBFB4
:1053800080910E098F9380910D098F938091DA0897
:105390008F938091D9088F931F930F93EDB7FEB72A
:1053A0003C970FB6F894FEBF0FBEEDBFADB7BEB7CA
:1053B00011968CE0EBE3FFE001900D928A95E1F706
:1053C0008DB79EB7805491090FB6F8949EBF0FBE5B
:1053D0008DBFADB7BEB7119680E4E5E2FAE101906A
:1053E0000D928A95E1F70E94F60F9093361A8093FA
:1053F000351A0FB6F894DEBF0FBECDBF80910E09EF
:105400008F9380910D098F938091F2088F938091F3
:10541000F1088F938EE192E09F938F938DB79EB7A3
:105420000C970FB6F8949EBF0FBE8DBFADB7BEB739
:1054300011968CE0E7E1FFE001900D928A95E1F78B
:10544000EDB7FEB7E054F1090FB6F894FEBF0FBEFA
:10545000EDBFADB7BEB7119680E4E5EEF9E101907E
:105460000D928A95E1F70E94F60F9093F6198093BA
:10547000F5190FB6F894DEBF0FBECDBF80910E09AF
:105480008F9380910D098F931F927F9284E192E018
:105490009F938F93EDB7FEB73C970FB6F894FEBF7E
:1054A0000FBEEDBFADB7BEB711968CE0E3E2FFE0F3
:1054B00001900D928A95E1F78DB79EB780549109BE
:1054C0000FB6F8949EBF0FBE8DBFADB7BEB7119695
:1054D00080E4E5E2F9E101900D928A95E1F70E94FE
:1054E000F60F909336198093351940910D0950911C
:1054F0000E09209126043091270400912804109170
:1055000029048CE0EFEFFEE0DE011D9601900D9284
:105510008A95E1F70FB6F894DEBF0FBECDBF452BDD
:1055200009F04DC10115110509F04EC140911E024F
:1055300050911F02052E000C660B770BCE010D96C5
:105540000E94350F10E000E010932704009326041A
:1055500080910E098F9380910D098F938091EC08B3
:105560008F938091EB088F930AE012E01F930F93C3
:105570008DB79EB70C970FB6F8949EBF0FBE8DBF28
:10558000ADB7BEB711968CE0EFE2FFE001900D924F
:105590008A95E1F7EDB7FEB7E054F1090FB6F8943C
:1055A000FEBF0FBEEDBFADB7BEB7119680E4E5EA12
:1055B000F9E101900D928A95E1F70E94F60F909320
:1055C000B6198093B5190FB6F894DEBF0FBECDBFE4
:1055D00080910E098F9380910D098F938091F60829
:1055E0008F938091F5088F931F930F93EDB7FEB7BC
:1055F0003C970FB6F894FEBF0FBEEDBFADB7BEB778
:1056000011968CE0EBE0FFE001900D928A95E1F7B6
:105610008DB79EB7805491090FB6F8949EBF0FBE08
:105620008DBFADB7BEB7119680E4E5E6F9E1019014
:105630000D928A95E1F70E94F60F90937619809368
:1056400075190FB6F894DEBF0FBECDBF20910D09BE
:1056500030910E098091EB089091EC08232B09F012
:10566000C4C0892B71F463E575E08FE29EE00E946F
:105670008B0E8091B3199091B4199093B6198093C1
:10568000B5198091F1089091F208892BF1F463E546
:1056900075E08BE39EE00E948B0E4FE450E060E0EB
:1056A00070E08BE69EE00E94350F42E550E060E03E
:1056B00070E087E79EE00E94350F8091F31990918A
:1056C000F4199093F6198093F519809194029091B2
:1056D0009502892B71F463E575E08FE59EE00E94E9
:1056E0008B0E8091B31A9091B41A9093B61A80934E
:1056F000B51A8091DD089091DE08892B71F463E57D
:1057000075E083E59EE00E948B0E8091731A909164
:10571000741A9093761A8093751A8091D908909193
:10572000DA08892B71F463E575E087E49EE00E9456
:105730008B0E8091331A9091341A9093361A80937D
:10574000351A8091940290919502019771F468EB5B
:1057500075E08FE59EE00E948B0E8091B31A9091C8
:10576000B41A9093B61A8093B51A8091DD0890917F
:10577000DE08019771F46BEB75E083E59EE00E9413
:105780008B0E8091731A9091741A9093761A80936D
:10579000751A8091D9089091DA08019709F00CC127
:1057A0006EEB75E087E49EE00E948B0E8091331AC9
:1057B0009091341A9093361A8093351AFDC00217CF
:1057C000130709F0AFCEC0CE0130110509F0BCCEF1
:1057D0004091200250912102052E000C660B770BA0
:1057E000CE010D960E94350FAFCE892BC9F42091C2
:1057F000B5193091B6198091B3199091B419281741
:10580000390771F063E575E08FE29EE00E948B0E30
:105810008091B3199091B4199093B6198093B519EA
:105820008091F1089091F208892BC9F42091F51923
:105830003091F6198091F3199091F41928173907CE
:1058400071F063E575E08BE39EE00E948B0E809122
:10585000F3199091F4199093F6198093F5198091AA
:10586000940290919502892BC9F42091B51A309138
:10587000B61A8091B31A9091B41A2817390771F0AB
:1058800063E575E08FE59EE00E948B0E8091B31A70
:105890009091B41A9093B61A8093B51A8091DD084E
:1058A0009091DE08892BC9F42091751A3091761AEF
:1058B0008091731A9091741A2817390771F063E573
:1058C00075E083E59EE00E948B0E8091731A9091A3
:1058D000741A9093761A8093751A8091D9089091D2
:1058E000DA08892BC9F42091351A3091361A809143
:1058F000331A9091341A2817390771F063E575E06F
:1059000087E49EE00E948B0E8091331A9091341AA6
:105910009093361A8093351A809194029091950253
:105920000197C9F42091B51A3091B61A8091B31A33
:105930009091B41A2817390771F068EB75E08FE57C
:105940009EE00E948B0E8091B31A9091B41A9093AE
:10595000B61A8093B51A8091DD089091DE08019700
:10596000C9F42091751A3091761A8091731A90912A
:10597000741A2817390771F06BEB75E083E59EE028
:105980000E948B0E8091731A9091741A9093761ADC
:105990008093751A8091D9089091DA08019761F483
:1059A0002091351A3091361A8091331A9091341A19
:1059B0002817390709F0F4CE60919F187091A0184C
:1059C00080910E098F9380910D098F931F9281E032
:1059D0008F9380E0882E82E0982EA090E70EB09002
:1059E000E80EC090E90ED090EA0EE090EB0EF09039
:1059F000EC0E0091ED0E1091EE0E2091EF0E309115
:105A0000F00E4091F10E5091F20E80919D18909100
:105A10009E180E948B0F9093A01880939F188091DE
:105A20000D0990910E090F900F900F900F90009715
:105A300041F1019709F082C02091F5173091F617D6
:105A40004091F7175091F8176091F1177091F21784
:105A50008091F3179091F4170E94877D18160CF02F
:105A60006DC08091B1179091B217A091B317B0910A
:105A7000B4178093FD179093FE17A093FF17B09370
:105A800000186091B1177091B2178091B31790917F
:105A9000B417A090DB0EB090DC0EC090DD0ED0905D
:105AA000DE0EE090DF0EF090E00E0091E10E10911E
:105AB000E20E2091E30E3091E40E4091E50E5091FC
:105AC000E60E0E9461276091B1177091B217809124
:105AD000B3179091B4170E94587D2B018E01075E79
